:02000000800B73
:0100030032CA
:10000B0001617590F0C290116212DE0012DE0012D7
:10001B00DE0012DE0012DE0012DE0012DE0012DE47
:10002B000012DE0012DE0012DE0012DE0012DE0015
:10003B0012DE0012DE0012DE0012DE0012DE0012F3
:10004B00DE0012DE0012DE0012DE0012DE0012DE17
:10005B000012DE0080B122C2AFD2902096FBE4F8F2
:10006B00F97E427FFAA2969290E439F9E438F8DFF0
:10007B00F4DEF0D2AFC290E8C4540FF53EE8540F53
:10008B00F53DE9C4540FF53CE9540FF53B7410F5FD
:04009B003AF53922D7
:00000001FF
